{
  "contractName": "SixPillars",
  "abi": [
    {
      "constant": true,
      "inputs": [],
      "name": "InterfaceId_ERC165",
      "outputs": [
        {
          "name": "",
          "type": "bytes4"
        }
      ],
      "payable": false,
      "stateMutability": "view",
      "type": "function"
    },
    {
      "constant": true,
      "inputs": [],
      "name": "InterfaceId_ERC721Enumerable",
      "outputs": [
        {
          "name": "",
          "type": "bytes4"
        }
      ],
      "payable": false,
      "stateMutability": "view",
      "type": "function"
    },
    {
      "constant": true,
      "inputs": [],
      "name": "InterfaceId_ERC721TokenReceiver",
      "outputs": [
        {
          "name": "",
          "type": "bytes4"
        }
      ],
      "payable": false,
      "stateMutability": "view",
      "type": "function"
    },
    {
      "constant": true,
      "inputs": [],
      "name": "InterfaceId_ERC721",
      "outputs": [
        {
          "name": "",
          "type": "bytes4"
        }
      ],
      "payable": false,
      "stateMutability": "view",
      "type": "function"
    },
    {
      "constant": true,
      "inputs": [],
      "name": "InterfaceId_ERC721Metadata",
      "outputs": [
        {
          "name": "",
          "type": "bytes4"
        }
      ],
      "payable": false,
      "stateMutability": "view",
      "type": "function"
    },
    {
      "inputs": [],
      "payable": false,
      "stateMutability": "nonpayable",
      "type": "constructor"
    },
    {
      "anonymous": false,
      "inputs": [
        {
          "indexed": true,
          "name": "_owner",
          "type": "address"
        },
        {
          "indexed": true,
          "name": "_creator",
          "type": "address"
        },
        {
          "indexed": false,
          "name": "_inscription",
          "type": "uint256"
        },
        {
          "indexed": false,
          "name": "_tokenId",
          "type": "uint256"
        }
      ],
      "name": "Mint",
      "type": "event"
    },
    {
      "anonymous": false,
      "inputs": [
        {
          "indexed": true,
          "name": "_owner",
          "type": "address"
        },
        {
          "indexed": true,
          "name": "_creator",
          "type": "address"
        },
        {
          "indexed": false,
          "name": "_tokenId",
          "type": "uint256"
        }
      ],
      "name": "Burn",
      "type": "event"
    },
    {
      "anonymous": false,
      "inputs": [
        {
          "indexed": true,
          "name": "_creator",
          "type": "address"
        },
        {
          "indexed": false,
          "name": "_tokenId",
          "type": "uint256"
        }
      ],
      "name": "CreatedBy",
      "type": "event"
    },
    {
      "anonymous": false,
      "inputs": [
        {
          "indexed": false,
          "name": "_tokenId",
          "type": "uint256"
        }
      ],
      "name": "ClearCreator",
      "type": "event"
    },
    {
      "anonymous": false,
      "inputs": [
        {
          "indexed": true,
          "name": "_owner",
          "type": "address"
        },
        {
          "indexed": true,
          "name": "_approved",
          "type": "address"
        },
        {
          "indexed": true,
          "name": "_tokenId",
          "type": "uint256"
        },
        {
          "indexed": false,
          "name": "_amount",
          "type": "uint256"
        }
      ],
      "name": "ApprovalWithAmount",
      "type": "event"
    },
    {
      "anonymous": false,
      "inputs": [
        {
          "indexed": true,
          "name": "_from",
          "type": "address"
        },
        {
          "indexed": true,
          "name": "_to",
          "type": "address"
        },
        {
          "indexed": true,
          "name": "_tokenId",
          "type": "uint256"
        },
        {
          "indexed": false,
          "name": "_amount",
          "type": "uint256"
        }
      ],
      "name": "TransferWithAmount",
      "type": "event"
    },
    {
      "anonymous": false,
      "inputs": [
        {
          "indexed": true,
          "name": "_from",
          "type": "address"
        },
        {
          "indexed": true,
          "name": "_to",
          "type": "address"
        },
        {
          "indexed": true,
          "name": "_tokenId",
          "type": "uint256"
        }
      ],
      "name": "Transfer",
      "type": "event"
    },
    {
      "anonymous": false,
      "inputs": [
        {
          "indexed": true,
          "name": "_owner",
          "type": "address"
        },
        {
          "indexed": true,
          "name": "_approved",
          "type": "address"
        },
        {
          "indexed": true,
          "name": "_tokenId",
          "type": "uint256"
        }
      ],
      "name": "Approval",
      "type": "event"
    },
    {
      "anonymous": false,
      "inputs": [
        {
          "indexed": true,
          "name": "_owner",
          "type": "address"
        },
        {
          "indexed": true,
          "name": "_operator",
          "type": "address"
        },
        {
          "indexed": false,
          "name": "_approved",
          "type": "bool"
        }
      ],
      "name": "ApprovalForAll",
      "type": "event"
    },
    {
      "constant": true,
      "inputs": [
        {
          "name": "_interfaceId",
          "type": "bytes4"
        }
      ],
      "name": "supportsInterface",
      "outputs": [
        {
          "name": "",
          "type": "bool"
        }
      ],
      "payable": false,
      "stateMutability": "view",
      "type": "function"
    },
    {
      "constant": true,
      "inputs": [],
      "name": "totalSupply",
      "outputs": [
        {
          "name": "",
          "type": "uint256"
        }
      ],
      "payable": false,
      "stateMutability": "view",
      "type": "function"
    },
    {
      "constant": true,
      "inputs": [
        {
          "name": "_index",
          "type": "uint256"
        }
      ],
      "name": "tokenByIndex",
      "outputs": [
        {
          "name": "",
          "type": "uint256"
        }
      ],
      "payable": false,
      "stateMutability": "view",
      "type": "function"
    },
    {
      "constant": true,
      "inputs": [
        {
          "name": "_owner",
          "type": "address"
        },
        {
          "name": "_index",
          "type": "uint256"
        }
      ],
      "name": "tokenOfOwnerByIndex",
      "outputs": [
        {
          "name": "",
          "type": "uint256"
        }
      ],
      "payable": false,
      "stateMutability": "view",
      "type": "function"
    },
    {
      "constant": true,
      "inputs": [],
      "name": "name",
      "outputs": [
        {
          "name": "",
          "type": "string"
        }
      ],
      "payable": false,
      "stateMutability": "view",
      "type": "function"
    },
    {
      "constant": true,
      "inputs": [],
      "name": "symbol",
      "outputs": [
        {
          "name": "",
          "type": "string"
        }
      ],
      "payable": false,
      "stateMutability": "view",
      "type": "function"
    },
    {
      "constant": true,
      "inputs": [
        {
          "name": "_tokenId",
          "type": "uint256"
        }
      ],
      "name": "tokenURI",
      "outputs": [
        {
          "name": "",
          "type": "string"
        }
      ],
      "payable": false,
      "stateMutability": "view",
      "type": "function"
    },
    {
      "constant": false,
      "inputs": [
        {
          "name": "_operator",
          "type": "address"
        },
        {
          "name": "_from",
          "type": "address"
        },
        {
          "name": "_tokenId",
          "type": "uint256"
        },
        {
          "name": "_data",
          "type": "bytes"
        }
      ],
      "name": "onERC721Received",
      "outputs": [
        {
          "name": "",
          "type": "bytes4"
        }
      ],
      "payable": false,
      "stateMutability": "nonpayable",
      "type": "function"
    },
    {
      "constant": true,
      "inputs": [
        {
          "name": "_owner",
          "type": "address"
        }
      ],
      "name": "balanceOf",
      "outputs": [
        {
          "name": "",
          "type": "uint256"
        }
      ],
      "payable": false,
      "stateMutability": "view",
      "type": "function"
    },
    {
      "constant": true,
      "inputs": [
        {
          "name": "_tokenId",
          "type": "uint256"
        }
      ],
      "name": "ownerOf",
      "outputs": [
        {
          "name": "",
          "type": "address"
        }
      ],
      "payable": false,
      "stateMutability": "view",
      "type": "function"
    },
    {
      "constant": false,
      "inputs": [
        {
          "name": "_from",
          "type": "address"
        },
        {
          "name": "_to",
          "type": "address"
        },
        {
          "name": "_tokenId",
          "type": "uint256"
        },
        {
          "name": "_data",
          "type": "bytes"
        }
      ],
      "name": "safeTransferFrom",
      "outputs": [],
      "payable": true,
      "stateMutability": "payable",
      "type": "function"
    },
    {
      "constant": false,
      "inputs": [
        {
          "name": "_from",
          "type": "address"
        },
        {
          "name": "_to",
          "type": "address"
        },
        {
          "name": "_tokenId",
          "type": "uint256"
        }
      ],
      "name": "safeTransferFrom",
      "outputs": [],
      "payable": true,
      "stateMutability": "payable",
      "type": "function"
    },
    {
      "constant": false,
      "inputs": [
        {
          "name": "_from",
          "type": "address"
        },
        {
          "name": "_to",
          "type": "address"
        },
        {
          "name": "_tokenId",
          "type": "uint256"
        }
      ],
      "name": "transferFrom",
      "outputs": [],
      "payable": true,
      "stateMutability": "payable",
      "type": "function"
    },
    {
      "constant": false,
      "inputs": [
        {
          "name": "_operator",
          "type": "address"
        },
        {
          "name": "_approved",
          "type": "bool"
        }
      ],
      "name": "setApprovalForAll",
      "outputs": [],
      "payable": false,
      "stateMutability": "nonpayable",
      "type": "function"
    },
    {
      "constant": true,
      "inputs": [
        {
          "name": "_tokenId",
          "type": "uint256"
        }
      ],
      "name": "getApproved",
      "outputs": [
        {
          "name": "",
          "type": "address"
        }
      ],
      "payable": false,
      "stateMutability": "view",
      "type": "function"
    },
    {
      "constant": true,
      "inputs": [
        {
          "name": "_owner",
          "type": "address"
        },
        {
          "name": "_operator",
          "type": "address"
        }
      ],
      "name": "isApprovedForAll",
      "outputs": [
        {
          "name": "",
          "type": "bool"
        }
      ],
      "payable": false,
      "stateMutability": "view",
      "type": "function"
    },
    {
      "constant": false,
      "inputs": [
        {
          "name": "_approved",
          "type": "address"
        },
        {
          "name": "_tokenId",
          "type": "uint256"
        },
        {
          "name": "_amount",
          "type": "uint256"
        }
      ],
      "name": "approve",
      "outputs": [],
      "payable": true,
      "stateMutability": "payable",
      "type": "function"
    },
    {
      "constant": false,
      "inputs": [
        {
          "name": "_approved",
          "type": "address"
        },
        {
          "name": "_tokenId",
          "type": "uint256"
        }
      ],
      "name": "approve",
      "outputs": [],
      "payable": true,
      "stateMutability": "payable",
      "type": "function"
    },
    {
      "constant": true,
      "inputs": [
        {
          "name": "_tokenId",
          "type": "uint256"
        }
      ],
      "name": "amountOf",
      "outputs": [
        {
          "name": "",
          "type": "uint256"
        }
      ],
      "payable": false,
      "stateMutability": "view",
      "type": "function"
    },
    {
      "constant": true,
      "inputs": [
        {
          "name": "msgHash",
          "type": "bytes32"
        },
        {
          "name": "v",
          "type": "uint8"
        },
        {
          "name": "r",
          "type": "bytes32"
        },
        {
          "name": "s",
          "type": "bytes32"
        }
      ],
      "name": "recover",
      "outputs": [
        {
          "name": "",
          "type": "address"
        }
      ],
      "payable": false,
      "stateMutability": "pure",
      "type": "function"
    },
    {
      "constant": false,
      "inputs": [
        {
          "name": "_to",
          "type": "address"
        },
        {
          "name": "_inscription",
          "type": "uint256"
        },
        {
          "name": "_isSetCreator",
          "type": "bool"
        }
      ],
      "name": "mint",
      "outputs": [],
      "payable": false,
      "stateMutability": "nonpayable",
      "type": "function"
    },
    {
      "constant": false,
      "inputs": [
        {
          "name": "_tokenId",
          "type": "uint256"
        }
      ],
      "name": "burn",
      "outputs": [],
      "payable": false,
      "stateMutability": "nonpayable",
      "type": "function"
    },
    {
      "constant": false,
      "inputs": [
        {
          "name": "_tokenId",
          "type": "uint256"
        }
      ],
      "name": "createdBy",
      "outputs": [],
      "payable": false,
      "stateMutability": "nonpayable",
      "type": "function"
    },
    {
      "constant": false,
      "inputs": [
        {
          "name": "_tokenId",
          "type": "uint256"
        }
      ],
      "name": "clearCreator",
      "outputs": [],
      "payable": false,
      "stateMutability": "nonpayable",
      "type": "function"
    },
    {
      "constant": true,
      "inputs": [
        {
          "name": "_tokenId",
          "type": "uint256"
        }
      ],
      "name": "inscription",
      "outputs": [
        {
          "name": "",
          "type": "uint256"
        }
      ],
      "payable": false,
      "stateMutability": "view",
      "type": "function"
    },
    {
      "constant": true,
      "inputs": [
        {
          "name": "_tokenId",
          "type": "uint256"
        }
      ],
      "name": "creator",
      "outputs": [
        {
          "name": "",
          "type": "address"
        }
      ],
      "payable": false,
      "stateMutability": "view",
      "type": "function"
    },
    {
      "constant": true,
      "inputs": [
        {
          "name": "_tokenId",
          "type": "uint256"
        }
      ],
      "name": "createdAt",
      "outputs": [
        {
          "name": "",
          "type": "uint256"
        }
      ],
      "payable": false,
      "stateMutability": "view",
      "type": "function"
    },
    {
      "constant": false,
      "inputs": [
        {
          "name": "_tokenId",
          "type": "uint256"
        },
        {
          "name": "_uri",
          "type": "string"
        }
      ],
      "name": "setTokenURI",
      "outputs": [],
      "payable": false,
      "stateMutability": "nonpayable",
      "type": "function"
    },
    {
      "constant": true,
      "inputs": [
        {
          "name": "_creator",
          "type": "address"
        }
      ],
      "name": "balanceOfCreator",
      "outputs": [
        {
          "name": "",
          "type": "uint256"
        }
      ],
      "payable": false,
      "stateMutability": "view",
      "type": "function"
    },
    {
      "constant": true,
      "inputs": [
        {
          "name": "_creator",
          "type": "address"
        },
        {
          "name": "_index",
          "type": "uint256"
        }
      ],
      "name": "tokenOfCreatorByIndex",
      "outputs": [
        {
          "name": "",
          "type": "uint256"
        }
      ],
      "payable": false,
      "stateMutability": "view",
      "type": "function"
    },
    {
      "constant": true,
      "inputs": [
        {
          "name": "_owner",
          "type": "address"
        },
        {
          "name": "_creator",
          "type": "address"
        }
      ],
      "name": "balanceOfOwnerAndCreator",
      "outputs": [
        {
          "name": "",
          "type": "uint256"
        }
      ],
      "payable": false,
      "stateMutability": "view",
      "type": "function"
    },
    {
      "constant": true,
      "inputs": [
        {
          "name": "_owner",
          "type": "address"
        },
        {
          "name": "_creator",
          "type": "address"
        },
        {
          "name": "_index",
          "type": "uint256"
        }
      ],
      "name": "tokenOfOwnerAndCreatorByIndex",
      "outputs": [
        {
          "name": "",
          "type": "uint256"
        }
      ],
      "payable": false,
      "stateMutability": "view",
      "type": "function"
    }
  ],
  "bytecode": "0x60806040523480156200001157600080fd5b506200004f6301ffc9a77c0100000000000000000000000000000000000000000000000000000000026200015a640100000000026401000000009004565b6200008c6380ac58cd7c0100000000000000000000000000000000000000000000000000000000026200015a640100000000026401000000009004565b620000c963780e9d637c0100000000000000000000000000000000000000000000000000000000026200015a640100000000026401000000009004565b62000106635b5e139f7c0100000000000000000000000000000000000000000000000000000000026200015a640100000000026401000000009004565b6200014363150b7a027c0100000000000000000000000000000000000000000000000000000000026200015a640100000000026401000000009004565b6102d2600281905550600060038190555062000219565b63ffffffff7c010000000000000000000000000000000000000000000000000000000002817bffffffffffffffffffffffffffffffffffffffffffffffffffffffff191614151515620001ac57600080fd5b600160066000837bffffffffffffffffffffffffffffffffffffffffffffffffffffffff19167bffffffffffffffffffffffffffffffffffffffffffffffffffffffff1916815260200190815260200160002060006101000a81548160ff02191690831515021790555050565b61408080620002296000396000f3006080604052600436106101cc576000357c0100000000000000000000000000000000000000000000000000000000900463ffffffff1680621baa89146101d157806301ffc9a7146101fe57806306fdde0314610262578063081812fc146102f2578063095ea7b31461035f578063150b7a021461039f57806315105fa814610476578063162094c4146104a357806318160ddd146104e857806319fa8f501461051357806323b872dd1461057c5780632f745c59146105dc578063426a84931461063d57806342842e0e1461068757806342966c68146106e75780634f6ccce7146107145780634fc092751461075557806350a1676e146107b6578063510b5158146107f757806363365651146108645780636352211e146108cd57806363895eb41461093a57806370a08231146109a357806379d28ac9146109fa578063819ee03a14610a5157806383f5a47e14610aba57806395d89b4114610b3b578063968c15de14610bcb578063a1ac8c5614610c0c578063a22cb46514610c83578063b88d4fde14610cd2578063bd12a00714610d4a578063c2bf17b014610db3578063c87b56dd14610e4d578063d1a1beb414610ef3578063e8eb228414610f4c578063e985e9c514610f8d575b600080fd5b3480156101dd57600080fd5b506101fc60048036038101908080359060200190929190505050611008565b005b34801561020a57600080fd5b5061024860048036038101908080357bffffffffffffffffffffffffffffffffffffffffffffffffffffffff19169060200190929190505050611146565b604051808215151515815260200191505060405180910390f35b34801561026e57600080fd5b506102776111ae565b6040518080602001828103825283818151815260200191508051906020019080838360005b838110156102b757808201518184015260208101905061029c565b50505050905090810190601f1680156102e45780820380516001836020036101000a031916815260200191505b509250505060405180910390f35b3480156102fe57600080fd5b5061031d600480360381019080803590602001909291905050506111eb565b604051808273ffffffffffffffffffffffffffffffffffffffff1673ffffffffffffffffffffffffffffffffffffffff16815260200191505060405180910390f35b61039d600480360381019080803573ffffffffffffffffffffffffffffffffffffffff169060200190929190803590602001909291905050506111fd565b005b3480156103ab57600080fd5b50610422600480360381019080803573ffffffffffffffffffffffffffffffffffffffff169060200190929190803573ffffffffffffffffffffffffffffffffffffffff1690602001909291908035906020019092919080359060200190820180359060200191909192939192939050505061120d565b60405180827bffffffffffffffffffffffffffffffffffffffffffffffffffffffff19167bffffffffffffffffffffffffffffffffffffffffffffffffffffffff1916815260200191505060405180910390f35b34801561048257600080fd5b506104a16004803603810190808035906020019092919050505061123e565b005b3480156104af57600080fd5b506104e660048036038101908080359060200190929190803590602001908201803590602001919091929391929390505050611364565b005b3480156104f457600080fd5b506104fd611421565b6040518082815260200191505060405180910390f35b34801561051f57600080fd5b5061052861142d565b60405180827bffffffffffffffffffffffffffffffffffffffffffffffffffffffff19167bffffffffffffffffffffffffffffffffffffffffffffffffffffffff1916815260200191505060405180910390f35b6105da600480360381019080803573ffffffffffffffffffffffffffffffffffffffff169060200190929190803573ffffffffffffffffffffffffffffffffffffffff16906020019092919080359060200190929190505050611454565b005b3480156105e857600080fd5b50610627600480360381019080803573ffffffffffffffffffffffffffffffffffffffff16906020019092919080359060200190929190505050611521565b6040518082815260200191505060405180910390f35b610685600480360381019080803573ffffffffffffffffffffffffffffffffffffffff16906020019092919080359060200190929190803590602001909291905050506115f7565b005b6106e5600480360381019080803573ffffffffffffffffffffffffffffffffffffffff169060200190929190803573ffffffffffffffffffffffffffffffffffffffff16906020019092919080359060200190929190505050611607565b005b3480156106f357600080fd5b50610712600480360381019080803590602001909291905050506116e5565b005b34801561072057600080fd5b5061073f6004803603810190808035906020019092919050505061182a565b6040518082815260200191505060405180910390f35b34801561076157600080fd5b506107a0600480360381019080803573ffffffffffffffffffffffffffffffffffffffff1690602001909291908035906020019092919050505061183c565b6040518082815260200191505060405180910390f35b3480156107c257600080fd5b506107e160048036038101908080359060200190929190505050611959565b6040518082815260200191505060405180910390f35b34801561080357600080fd5b5061082260048036038101908080359060200190929190505050611990565b604051808273ffffffffffffffffffffffffffffffffffffffff1673ffffffffffffffffffffffffffffffffffffffff16815260200191505060405180910390f35b34801561087057600080fd5b506108796119e7565b60405180827bffffffffffffffffffffffffffffffffffffffffffffffffffffffff19167bffffffffffffffffffffffffffffffffffffffffffffffffffffffff1916815260200191505060405180910390f35b3480156108d957600080fd5b506108f860048036038101908080359060200190929190505050611a0e565b604051808273ffffffffffffffffffffffffffffffffffffffff1673ffffffffffffffffffffffffffffffffffffffff16815260200191505060405180910390f35b34801561094657600080fd5b5061094f611a20565b60405180827bffffffffffffffffffffffffffffffffffffffffffffffffffffffff19167bffffffffffffffffffffffffffffffffffffffffffffffffffffffff1916815260200191505060405180910390f35b3480156109af57600080fd5b506109e4600480360381019080803573ffffffffffffffffffffffffffffffffffffffff169060200190929190505050611a47565b6040518082815260200191505060405180910390f35b348015610a0657600080fd5b50610a3b600480360381019080803573ffffffffffffffffffffffffffffffffffffffff169060200190929190505050611ace565b6040518082815260200191505060405180910390f35b348015610a5d57600080fd5b50610a66611bb8565b60405180827bffffffffffffffffffffffffffffffffffffffffffffffffffffffff19167bffffffffffffffffffffffffffffffffffffffffffffffffffffffff1916815260200191505060405180910390f35b348015610ac657600080fd5b50610b25600480360381019080803573ffffffffffffffffffffffffffffffffffffffff169060200190929190803573ffffffffffffffffffffffffffffffffffffffff16906020019092919080359060200190929190505050611bdf565b6040518082815260200191505060405180910390f35b348015610b4757600080fd5b50610b50611dcf565b6040518080602001828103825283818151815260200191508051906020019080838360005b83811015610b90578082015181840152602081019050610b75565b50505050905090810190601f168015610bbd5780820380516001836020036101000a031916815260200191505b509250505060405180910390f35b348015610bd757600080fd5b50610bf660048036038101908080359060200190929190505050611e0c565b6040518082815260200191505060405180910390f35b348015610c1857600080fd5b50610c6d600480360381019080803573ffffffffffffffffffffffffffffffffffffffff169060200190929190803573ffffffffffffffffffffffffffffffffffffffff169060200190929190505050611e43565b6040518082815260200191505060405180910390f35b348015610c8f57600080fd5b50610cd0600480360381019080803573ffffffffffffffffffffffffffffffffffffffff169060200190929190803515159060200190929190505050612000565b005b610d48600480360381019080803573ffffffffffffffffffffffffffffffffffffffff169060200190929190803573ffffffffffffffffffffffffffffffffffffffff1690602001909291908035906020019092919080359060200190820180359060200191909192939192939050505061213c565b005b348015610d5657600080fd5b50610d5f61223e565b60405180827bffffffffffffffffffffffffffffffffffffffffffffffffffffffff19167bffffffffffffffffffffffffffffffffffffffffffffffffffffffff1916815260200191505060405180910390f35b348015610dbf57600080fd5b50610e0b6004803603810190808035600019169060200190929190803560ff16906020019092919080356000191690602001909291908035600019169060200190929190505050612265565b604051808273ffffffffffffffffffffffffffffffffffffffff1673ffffffffffffffffffffffffffffffffffffffff16815260200191505060405180910390f35b348015610e5957600080fd5b50610e78600480360381019080803590602001909291905050506122f2565b6040518080602001828103825283818151815260200191508051906020019080838360005b83811015610eb8578082015181840152602081019050610e9d565b50505050905090810190601f168015610ee55780820380516001836020036101000a031916815260200191505b509250505060405180910390f35b348015610eff57600080fd5b50610f4a600480360381019080803573ffffffffffffffffffffffffffffffffffffffff169060200190929190803590602001909291908035151590602001909291905050506123c2565b005b348015610f5857600080fd5b50610f7760048036038101908080359060200190929190505050612517565b6040518082815260200191505060405180910390f35b348015610f9957600080fd5b50610fee600480360381019080803573ffffffffffffffffffffffffffffffffffffffff169060200190929190803573ffffffffffffffffffffffffffffffffffffffff16906020019092919050505061254e565b604051808215151515815260200191505060405180910390f35b60008061101483612562565b915060008281548110151561102557fe5b906000526020600020906009020160060160009054906101000a900473ffffffffffffffffffffffffffffffffffffffff169050600073ffffffffffffffffffffffffffffffffffffffff168173ffffffffffffffffffffffffffffffffffffffff1614151561109457600080fd5b336000838154811015156110a457fe5b906000526020600020906009020160060160006101000a81548173ffffffffffffffffffffffffffffffffffffffff021916908373ffffffffffffffffffffffffffffffffffffffff1602179055503373ffffffffffffffffffffffffffffffffffffffff167fff8bb7fb3f9399329e771a899663512e27f6a61ace14f788a702c0f01fbc7f8b846040518082815260200191505060405180910390a2505050565b600060066000837bffffffffffffffffffffffffffffffffffffffffffffffffffffffff19167bffffffffffffffffffffffffffffffffffffffffffffffffffffffff1916815260200190815260200160002060009054906101000a900460ff169050919050565b60606040805190810160405280600a81526020017f53697850696c6c61727300000000000000000000000000000000000000000000815250905090565b60006111f6826125c5565b9050919050565b6112098282600061261c565b5050565b600063150b7a027c010000000000000000000000000000000000000000000000000000000002905095945050505050565b60008061124a83612562565b915060008281548110151561125b57fe5b906000526020600020906009020160060160009054906101000a900473ffffffffffffffffffffffffffffffffffffffff1690508073ffffffffffffffffffffffffffffffffffffffff163373ffffffffffffffffffffffffffffffffffffffff161415156112c957600080fd5b600080838154811015156112d957fe5b906000526020600020906009020160060160006101000a81548173ffffffffffffffffffffffffffffffffffffffff021916908373ffffffffffffffffffffffffffffffffffffffff1602179055507f7bd093fff706c1478043eb8d9c9a16c5899318ad9a74bacb13514b8d488c31db836040518082815260200191505060405180910390a1505050565b600061136f84612562565b90503373ffffffffffffffffffffffffffffffffffffffff1660008281548110151561139757fe5b906000526020600020906009020160050160009054906101000a900473ffffffffffffffffffffffffffffffffffffffff1673ffffffffffffffffffffffffffffffffffffffff161415156113eb57600080fd5b82826000838154811015156113fc57fe5b9060005260206000209060090201600801919061141a929190613ca7565b5050505050565b60008080549050905090565b6301ffc9a77c01000000000000000000000000000000000000000000000000000000000281565b600061146284848434612849565b9050806000101561151b578373ffffffffffffffffffffffffffffffffffffffff166108fc829081150290604051600060405180830381858888f193505050501580156114b3573d6000803e3d6000fd5b50818373ffffffffffffffffffffffffffffffffffffffff168573ffffffffffffffffffffffffffffffffffffffff167f78cfbf59ac826b3433da5294c46a9dbb9d8dd1991f51e84bfbcb7cf4df4edaab846040518082815260200191505060405180910390a45b50505050565b600080600460008573ffffffffffffffffffffffffffffffffffffffff1673ffffffffffffffffffffffffffffffffffffffff168152602001908152602001600020805490508310151561157457600080fd5b600460008573ffffffffffffffffffffffffffffffffffffffff1673ffffffffffffffffffffffffffffffffffffffff168152602001908152602001600020838154811015156115c057fe5b906000526020600020015490506000818154811015156115dc57fe5b90600052602060002090600902016000015491505092915050565b61160283838361261c565b505050565b6000611626848484346020604051908101604052806000815250612b9f565b905080600010156116df578373ffffffffffffffffffffffffffffffffffffffff166108fc829081150290604051600060405180830381858888f19350505050158015611677573d6000803e3d6000fd5b50818373ffffffffffffffffffffffffffffffffffffffff168573ffffffffffffffffffffffffffffffffffffffff167f78cfbf59ac826b3433da5294c46a9dbb9d8dd1991f51e84bfbcb7cf4df4edaab846040518082815260200191505060405180910390a45b50505050565b60008060006116f384612562565b925060008381548110151561170457fe5b906000526020600020906009020160050160009054906101000a900473ffffffffffffffffffffffffffffffffffffffff16915060008381548110151561174757fe5b906000526020600020906009020160060160009054906101000a900473ffffffffffffffffffffffffffffffffffffffff1690503373ffffffffffffffffffffffffffffffffffffffff168273ffffffffffffffffffffffffffffffffffffffff161415156117b557600080fd5b6117bf8285612e48565b8073ffffffffffffffffffffffffffffffffffffffff168273ffffffffffffffffffffffffffffffffffffffff167fbac40739b0d4ca32fa2d82fc91630465ba3eddd1598da6fca393b26fb63b9453866040518082815260200191505060405180910390a350505050565b6000611835826133d5565b9050919050565b60008060008073ffffffffffffffffffffffffffffffffffffffff168573ffffffffffffffffffffffffffffffffffffffff161415151561187c57600080fd5b60009150600090505b60008054905081101561194c578473ffffffffffffffffffffffffffffffffffffffff166000828154811015156118b857fe5b906000526020600020906009020160060160009054906101000a900473ffffffffffffffffffffffffffffffffffffffff1673ffffffffffffffffffffffffffffffffffffffff16141561193f57838214156119365760008181548110151561191d57fe5b9060005260206000209060090201600001549250611951565b81806001019250505b8080600101915050611885565b600080fd5b505092915050565b60008061196583612562565b905060008181548110151561197657fe5b906000526020600020906009020160040154915050919050565b60008061199c83612562565b90506000818154811015156119ad57fe5b906000526020600020906009020160060160009054906101000a900473ffffffffffffffffffffffffffffffffffffffff16915050919050565b63780e9d637c01000000000000000000000000000000000000000000000000000000000281565b6000611a1982613411565b9050919050565b63150b7a027c01000000000000000000000000000000000000000000000000000000000281565b60008073ffffffffffffffffffffffffffffffffffffffff168273ffffffffffffffffffffffffffffffffffffffff1614151515611a8457600080fd5b600460008373ffffffffffffffffffffffffffffffffffffffff1673ffffffffffffffffffffffffffffffffffffffff168152602001908152602001600020805490509050919050565b60008060008073ffffffffffffffffffffffffffffffffffffffff168473ffffffffffffffffffffffffffffffffffffffff1614151515611b0e57600080fd5b60009150600090505b600080549050811015611bae578373ffffffffffffffffffffffffffffffffffffffff16600082815481101515611b4a57fe5b906000526020600020906009020160060160009054906101000a900473ffffffffffffffffffffffffffffffffffffffff1673ffffffffffffffffffffffffffffffffffffffff161415611ba15781806001019250505b8080600101915050611b17565b8192505050919050565b6380ac58cd7c01000000000000000000000000000000000000000000000000000000000281565b600080600080600073ffffffffffffffffffffffffffffffffffffffff168773ffffffffffffffffffffffffffffffffffffffff1614158015611c4f5750600073ffffffffffffffffffffffffffffffffffffffff168673ffffffffffffffffffffffffffffffffffffffff1614155b1515611c5a57600080fd5b60009250600091505b600460008873ffffffffffffffffffffffffffffffffffffffff1673ffffffffffffffffffffffffffffffffffffffff16815260200190815260200160002080549050821015611dc057600460008873ffffffffffffffffffffffffffffffffffffffff1673ffffffffffffffffffffffffffffffffffffffff16815260200190815260200160002082815481101515611cf957fe5b906000526020600020015490508573ffffffffffffffffffffffffffffffffffffffff16600082815481101515611d2c57fe5b906000526020600020906009020160060160009054906101000a900473ffffffffffffffffffffffffffffffffffffffff1673ffffffffffffffffffffffffffffffffffffffff161415611db35784831415611daa57600081815481101515611d9157fe5b9060005260206000209060090201600001549350611dc5565b82806001019350505b8180600101925050611c63565b600080fd5b5050509392505050565b60606040805190810160405280600381526020017f5350540000000000000000000000000000000000000000000000000000000000815250905090565b600080611e1883612562565b9050600081815481101515611e2957fe5b906000526020600020906009020160010154915050919050565b600080600080600073ffffffffffffffffffffffffffffffffffffffff168673ffffffffffffffffffffffffffffffffffffffff1614158015611eb35750600073ffffffffffffffffffffffffffffffffffffffff168573ffffffffffffffffffffffffffffffffffffffff1614155b1515611ebe57600080fd5b60009250600091505b600460008773ffffffffffffffffffffffffffffffffffffffff1673ffffffffffffffffffffffffffffffffffffffff16815260200190815260200160002080549050821015611ff457600460008773ffffffffffffffffffffffffffffffffffffffff1673ffffffffffffffffffffffffffffffffffffffff16815260200190815260200160002082815481101515611f5d57fe5b906000526020600020015490508473ffffffffffffffffffffffffffffffffffffffff16600082815481101515611f9057fe5b906000526020600020906009020160060160009054906101000a900473ffffffffffffffffffffffffffffffffffffffff1673ffffffffffffffffffffffffffffffffffffffff161415611fe75782806001019350505b8180600101925050611ec7565b82935050505092915050565b3373ffffffffffffffffffffffffffffffffffffffff168273ffffffffffffffffffffffffffffffffffffffff161415151561203b57600080fd5b80600560003373ffffffffffffffffffffffffffffffffffffffff1673ffffffffffffffffffffffffffffffffffffffff16815260200190815260200160002060008473ffffffffffffffffffffffffffffffffffffffff1673ffffffffffffffffffffffffffffffffffffffff16815260200190815260200160002060006101000a81548160ff0219169083151502179055508173ffffffffffffffffffffffffffffffffffffffff163373ffffffffffffffffffffffffffffffffffffffff167f17307eab39ab6107e8899845ad3d59bd9653f200f220920489ca2b5937696c3183604051808215151515815260200191505060405180910390a35050565b600061217d8686863487878080601f016020809104026020016040519081016040528093929190818152602001838380828437820191505050505050612b9f565b90508060001015612236578573ffffffffffffffffffffffffffffffffffffffff166108fc829081150290604051600060405180830381858888f193505050501580156121ce573d6000803e3d6000fd5b50838573ffffffffffffffffffffffffffffffffffffffff168773ffffffffffffffffffffffffffffffffffffffff167f78cfbf59ac826b3433da5294c46a9dbb9d8dd1991f51e84bfbcb7cf4df4edaab846040518082815260200191505060405180910390a45b505050505050565b635b5e139f7c01000000000000000000000000000000000000000000000000000000000281565b6000600185858585604051600081526020016040526040518085600019166000191681526020018460ff1660ff1681526020018360001916600019168152602001826000191660001916815260200194505050505060206040516020810390808403906000865af11580156122de573d6000803e3d6000fd5b505050602060405103519050949350505050565b606060006122ff83612562565b905060008181548110151561231057fe5b90600052602060002090600902016008018054600181600116156101000203166002900480601f0160208091040260200160405190810160405280929190818152602001828054600181600116156101000203166002900480156123b55780601f1061238a576101008083540402835291602001916123b5565b820191906000526020600020905b81548152906001019060200180831161239857829003601f168201915b5050505050915050919050565b60008060025491506000600354141580156123de575043600354105b156123ed576003544303820191505b81604051602001808281526020019150506040516020818303038152906040526040518082805190602001908083835b602083101515612442578051825260208201915060208101905060208303925061241d565b6001836020036101000a0380198251168184511680821785525050505050509050019150506040518091039020600190049050806002819055504360038190555061248f85828686613468565b60011515831515146124a25760006124a4565b335b73ffffffffffffffffffffffffffffffffffffffff168573ffffffffffffffffffffffffffffffffffffffff167f2f00e3cdd69a77be7ed215ec7b2a36784dd158f921fca79ac29deffa353fe6ee8684604051808381526020018281526020019250505060405180910390a35050505050565b60008061252383612562565b905060008181548110151561253457fe5b906000526020600020906009020160020154915050919050565b600061255a83836137e6565b905092915050565b600080600160008481526020019081526020016000205490506000805490508110151561258e57600080fd5b8260008281548110151561259e57fe5b9060005260206000209060090201600001541415156125bc57600080fd5b80915050919050565b6000806125d183612562565b90506000818154811015156125e257fe5b906000526020600020906009020160070160009054906101000a900473ffffffffffffffffffffffffffffffffffffffff16915050919050565b60008061262884612562565b915060008281548110151561263957fe5b906000526020600020906009020160050160009054906101000a900473ffffffffffffffffffffffffffffffffffffffff1690508073ffffffffffffffffffffffffffffffffffffffff168573ffffffffffffffffffffffffffffffffffffffff16141515156126a857600080fd5b8073ffffffffffffffffffffffffffffffffffffffff163373ffffffffffffffffffffffffffffffffffffffff1614806126e857506126e7813361254e565b5b15156126f357600080fd5b8460008381548110151561270357fe5b906000526020600020906009020160070160006101000a81548173ffffffffffffffffffffffffffffffffffffffff021916908373ffffffffffffffffffffffffffffffffffffffff1602179055508260008381548110151561276257fe5b906000526020600020906009020160020181905550838573ffffffffffffffffffffffffffffffffffffffff168273ffffffffffffffffffffffffffffffffffffffff167f8c5be1e5ebec7d5bd14f71427d1e84f3dd0314c0f7b2291e5b200ac8c7c3b92560405160405180910390a4826000101561284257838573ffffffffffffffffffffffffffffffffffffffff168273ffffffffffffffffffffffffffffffffffffffff167f47acbf2e865dd3b62c6613c6db7412416e0943adb9af678f64ab3c3ff623a404866040518082815260200191505060405180910390a45b5050505050565b600080600080600061285a87612562565b935060008481548110151561286b57fe5b906000526020600020906009020160050160009054906101000a900473ffffffffffffffffffffffffffffffffffffffff1692508273ffffffffffffffffffffffffffffffffffffffff168973ffffffffffffffffffffffffffffffffffffffff1614801561290657508773ffffffffffffffffffffffffffffffffffffffff168973ffffffffffffffffffffffffffffffffffffffff1614155b151561291157600080fd5b60008481548110151561292057fe5b90600052602060002090600902016002015491506000808581548110151561294457fe5b9060005260206000209060090201600201819055508273ffffffffffffffffffffffffffffffffffffffff163373ffffffffffffffffffffffffffffffffffffffff161480612999575061299883336137e6565b5b905080156129b5576000861415156129b057600080fd5b612ac2565b3373ffffffffffffffffffffffffffffffffffffffff166000858154811015156129db57fe5b906000526020600020906009020160070160009054906101000a900473ffffffffffffffffffffffffffffffffffffffff1673ffffffffffffffffffffffffffffffffffffffff161415612a36578194508582149050612ac1565b600073ffffffffffffffffffffffffffffffffffffffff16600085815481101515612a5d57fe5b906000526020600020906009020160070160009054906101000a900473ffffffffffffffffffffffffffffffffffffffff1673ffffffffffffffffffffffffffffffffffffffff16148015612ab25750816000105b15612ac05781945085821490505b5b5b801515612ace57600080fd5b60008085815481101515612ade57fe5b906000526020600020906009020160070160006101000a81548173ffffffffffffffffffffffffffffffffffffffff021916908373ffffffffffffffffffffffffffffffffffffffff160217905550612b3889898961387a565b868873ffffffffffffffffffffffffffffffffffffffff168a73ffffffffffffffffffffffffffffffffffffffff167fddf252ad1be2c89b69c2b068fc378daa952ba7f163c4a11628f55a4df523b3ef60405160405180910390a450505050949350505050565b600080612bab86613c94565b15612e30578573ffffffffffffffffffffffffffffffffffffffff1663150b7a02338988876040518563ffffffff167c0100000000000000000000000000000000000000000000000000000000028152600401808573ffffffffffffffffffffffffffffffffffffffff1673ffffffffffffffffffffffffffffffffffffffff1681526020018473ffffffffffffffffffffffffffffffffffffffff1673ffffffffffffffffffffffffffffffffffffffff16815260200183815260200180602001828103825283818151815260200191508051906020019080838360005b83811015612ca5578082015181840152602081019050612c8a565b50505050905090810190601f168015612cd25780820380516001836020036101000a031916815260200191505b5095505050505050602060405180830381600087803b158015612cf457600080fd5b505af1158015612d08573d6000803e3d6000fd5b505050506040513d6020811015612d1e57600080fd5b8101908080519060200190929190505050905063150b7a027c0100000000000000000000000000000000000000000000000000000000027bffffffffffffffffffffffffffffffffffffffffffffffffffffffff1916817bffffffffffffffffffffffffffffffffffffffffffffffffffffffff1916141515612e2f576040517f08c379a00000000000000000000000000000000000000000000000000000000081526004018080602001828103825260348152602001807f696e7465726e616c536166655472616e7366657246726f6d206d73672e73656e81526020017f6465722063616e206e6f7420617070726f76656400000000000000000000000081525060400191505060405180910390fd5b5b612e3c87878787612849565b91505095945050505050565b600080600080600080612e5a87612562565b95508773ffffffffffffffffffffffffffffffffffffffff16600087815481101515612e8257fe5b906000526020600020906009020160050160009054906101000a900473ffffffffffffffffffffffffffffffffffffffff1673ffffffffffffffffffffffffffffffffffffffff16141515612ed657600080fd5b600086815481101515612ee557fe5b90600052602060002090600902016003015494506001600460008a73ffffffffffffffffffffffffffffffffffffffff1673ffffffffffffffffffffffffffffffffffffffff16815260200190815260200160002080549050039350838514151561307757846000600460008b73ffffffffffffffffffffffffffffffffffffffff1673ffffffffffffffffffffffffffffffffffffffff16815260200190815260200160002086815481101515612f9957fe5b9060005260206000200154815481101515612fb057fe5b906000526020600020906009020160030181905550600460008973ffffffffffffffffffffffffffffffffffffffff1673ffffffffffffffffffffffffffffffffffffffff1681526020019081526020016000208481548110151561301157fe5b9060005260206000200154600460008a73ffffffffffffffffffffffffffffffffffffffff1673ffffffffffffffffffffffffffffffffffffffff1681526020019081526020016000208681548110151561306857fe5b90600052602060002001819055505b83600460008a73ffffffffffffffffffffffffffffffffffffffff1673ffffffffffffffffffffffffffffffffffffffff168152602001908152602001600020816130c29190613d27565b50859450600160008054905003935083851415156133a3576000848154811015156130e957fe5b906000526020600020906009020160000154925060008481548110151561310c57fe5b906000526020600020906009020160050160009054906101000a900473ffffffffffffffffffffffffffffffffffffffff16915060008481548110151561314f57fe5b906000526020600020906009020160030154905084600460008473ffffffffffffffffffffffffffffffffffffffff1673ffffffffffffffffffffffffffffffffffffffff168152602001908152602001600020828154811015156131b057fe5b90600052602060002001819055508460016000858152602001908152602001600020819055506000848154811015156131e557fe5b906000526020600020906009020160008681548110151561320257fe5b906000526020600020906009020160008201548160000155600182015481600101556002820154816002015560038201548160030155600482015481600401556005820160009054906101000a900473ffffffffffffffffffffffffffffffffffffffff168160050160006101000a81548173ffffffffffffffffffffffffffffffffffffffff021916908373ffffffffffffffffffffffffffffffffffffffff1602179055506006820160009054906101000a900473ffffffffffffffffffffffffffffffffffffffff168160060160006101000a81548173ffffffffffffffffffffffffffffffffffffffff021916908373ffffffffffffffffffffffffffffffffffffffff1602179055506007820160009054906101000a900473ffffffffffffffffffffffffffffffffffffffff168160070160006101000a81548173ffffffffffffffffffffffffffffffffffffffff021916908373ffffffffffffffffffffffffffffffffffffffff1602179055506008820181600801908054600181600116156101000203166002900461339e929190613d53565b509050505b60006001600089815260200190815260200160002081905550836000816133ca9190613dda565b505050505050505050565b60008080549050821015156133e957600080fd5b6000828154811015156133f857fe5b9060005260206000209060090201600001549050919050565b60008061341d83612562565b905060008181548110151561342e57fe5b906000526020600020906009020160050160009054906101000a900473ffffffffffffffffffffffffffffffffffffffff16915050919050565b6000806000613475613e0c565b60016000888152602001908152602001600020549350600073ffffffffffffffffffffffffffffffffffffffff168873ffffffffffffffffffffffffffffffffffffffff16141515156134c757600080fd5b6000841480156134dc57506000805490506000105b1561351157866000808154811015156134f157fe5b9060005260206000209060090201600001541415151561351057600080fd5b5b6000805490509350600460008973ffffffffffffffffffffffffffffffffffffffff1673ffffffffffffffffffffffffffffffffffffffff168152602001908152602001600020805490509250600460008973ffffffffffffffffffffffffffffffffffffffff1673ffffffffffffffffffffffffffffffffffffffff168152602001908152602001600020849080600181540180825580915050906001820390600052602060002001600090919290919091505550846135d35760006135d5565b335b915061012060405190810160405280888152602001878152602001600081526020018481526020014381526020018973ffffffffffffffffffffffffffffffffffffffff1681526020018373ffffffffffffffffffffffffffffffffffffffff168152602001600073ffffffffffffffffffffffffffffffffffffffff1681526020016020604051908101604052806000815250815250905060008190806001815401808255809150509060018203906000526020600020906009020160009091929091909150600082015181600001556020820151816001015560408201518160020155606082015181600301556080820151816004015560a08201518160050160006101000a81548173ffffffffffffffffffffffffffffffffffffffff021916908373ffffffffffffffffffffffffffffffffffffffff16021790555060c08201518160060160006101000a81548173ffffffffffffffffffffffffffffffffffffffff021916908373ffffffffffffffffffffffffffffffffffffffff16021790555060e08201518160070160006101000a81548173ffffffffffffffffffffffffffffffffffffffff021916908373ffffffffffffffffffffffffffffffffffffffff1602179055506101008201518160080190805190602001906137c0929190613e9b565b505050508360016000898152602001908152602001600020819055505050505050505050565b6000600560008473ffffffffffffffffffffffffffffffffffffffff1673ffffffffffffffffffffffffffffffffffffffff16815260200190815260200160002060008373ffffffffffffffffffffffffffffffffffffffff1673ffffffffffffffffffffffffffffffffffffffff16815260200190815260200160002060009054906101000a900460ff16905092915050565b60008060008061388985612562565b9350600073ffffffffffffffffffffffffffffffffffffffff168673ffffffffffffffffffffffffffffffffffffffff16141580156138f457508573ffffffffffffffffffffffffffffffffffffffff168773ffffffffffffffffffffffffffffffffffffffff1614155b801561396b57508673ffffffffffffffffffffffffffffffffffffffff1660008581548110151561392157fe5b906000526020600020906009020160050160009054906101000a900473ffffffffffffffffffffffffffffffffffffffff1673ffffffffffffffffffffffffffffffffffffffff16145b151561397657600080fd5b60008481548110151561398557fe5b90600052602060002090600902016003015492506001600460008973ffffffffffffffffffffffffffffffffffffffff1673ffffffffffffffffffffffffffffffffffffffff16815260200190815260200160002080549050039150826000600460008a73ffffffffffffffffffffffffffffffffffffffff1673ffffffffffffffffffffffffffffffffffffffff16815260200190815260200160002084815481101515613a3057fe5b9060005260206000200154815481101515613a4757fe5b906000526020600020906009020160030181905550600460008873ffffffffffffffffffffffffffffffffffffffff1673ffffffffffffffffffffffffffffffffffffffff16815260200190815260200160002082815481101515613aa857fe5b9060005260206000200154600460008973ffffffffffffffffffffffffffffffffffffffff1673ffffffffffffffffffffffffffffffffffffffff16815260200190815260200160002084815481101515613aff57fe5b906000526020600020018190555081600460008973ffffffffffffffffffffffffffffffffffffffff1673ffffffffffffffffffffffffffffffffffffffff16815260200190815260200160002081613b589190613d27565b50600460008773ffffffffffffffffffffffffffffffffffffffff1673ffffffffffffffffffffffffffffffffffffffff168152602001908152602001600020805490509050600460008773ffffffffffffffffffffffffffffffffffffffff1673ffffffffffffffffffffffffffffffffffffffff16815260200190815260200160002084908060018154018082558091505090600182039060005260206000200160009091929091909150555085600085815481101515613c1757fe5b906000526020600020906009020160050160006101000a81548173ffffffffffffffffffffffffffffffffffffffff021916908373ffffffffffffffffffffffffffffffffffffffff16021790555080600085815481101515613c7657fe5b90600052602060002090600902016003018190555050505050505050565b600080823b905060008111915050919050565b828054600181600116156101000203166002900490600052602060002090601f016020900481019282601f10613ce857803560ff1916838001178555613d16565b82800160010185558215613d16579182015b82811115613d15578235825591602001919060010190613cfa565b5b509050613d239190613f1b565b5090565b815481835581811115613d4e57818360005260206000209182019101613d4d9190613f1b565b5b505050565b828054600181600116156101000203166002900490600052602060002090601f016020900481019282601f10613d8c5780548555613dc9565b82800160010185558215613dc957600052602060002091601f016020900482015b82811115613dc8578254825591600101919060010190613dad565b5b509050613dd69190613f1b565b5090565b815481835581811115613e0757600902816009028360005260206000209182019101613e069190613f40565b5b505050565b610120604051908101604052806000815260200160008152602001600081526020016000815260200160008152602001600073ffffffffffffffffffffffffffffffffffffffff168152602001600073ffffffffffffffffffffffffffffffffffffffff168152602001600073ffffffffffffffffffffffffffffffffffffffff168152602001606081525090565b828054600181600116156101000203166002900490600052602060002090601f016020900481019282601f10613edc57805160ff1916838001178555613f0a565b82800160010185558215613f0a579182015b82811115613f09578251825591602001919060010190613eee565b5b509050613f179190613f1b565b5090565b613f3d91905b80821115613f39576000816000905550600101613f21565b5090565b90565b61400991905b808211156140055760008082016000905560018201600090556002820160009055600382016000905560048201600090556005820160006101000a81549073ffffffffffffffffffffffffffffffffffffffff02191690556006820160006101000a81549073ffffffffffffffffffffffffffffffffffffffff02191690556007820160006101000a81549073ffffffffffffffffffffffffffffffffffffffff0219169055600882016000613ffc919061400c565b50600901613f46565b5090565b90565b50805460018160011615610100020316600290046000825580601f106140325750614051565b601f0160209004906000526020600020908101906140509190613f1b565b5b505600a165627a7a723058202a8cbe845f838b767bef61fa7596a5dd7eb0d4e4118bd09d582eae20eda2dba50029",
  "source": "pragma solidity ^0.4.23;\n\nimport \"./ERC/ERC165.sol\";\nimport \"./ERC/ERC721.sol\";\nimport \"./ERC/ERC721Enumerable.sol\";\nimport \"./ERC/ERC721Metadata.sol\";\nimport \"./ERC/ERC721TokenReceiver.sol\";\n\ncontract SixPillars is ERC165, ERC721, ERC721Enumerable, ERC721Metadata, ERC721TokenReceiver {\n  /// This emits when minted new token.\n  event Mint(\n    address indexed _owner,\n    address indexed _creator,\n    uint256 _inscription,\n    uint256 _tokenId\n  );\n\n  /// This emits when burned any token.\n  event Burn(\n    address indexed _owner,\n    address indexed _creator,\n    uint256 _tokenId\n  );\n\n  /// This emits when set new creator of any token.\n  event CreatedBy(\n    address indexed _creator,\n    uint256 _tokenId\n  );\n\n  /// This emits when remove creator of any token.\n  event ClearCreator(\n    uint256 _tokenId\n  );\n\n  /// This emits when the approved amount for an NFT is changed or reaffirmed.\n  /// and it emits after `Approval` event.\n  event ApprovalWithAmount(\n    address indexed _owner,\n    address indexed _approved,\n    uint256 indexed _tokenId,\n    uint256 _amount\n  );\n\n  /// This emits when ownership of any token changes by used amount.\n  /// and it emits after `Transfer` event.\n  event TransferWithAmount(\n    address indexed _from,\n    address indexed _to,\n    uint256 indexed _tokenId,\n    uint256 _amount\n  );\n\n  struct Token {\n    uint256 id;\n    uint256 inscription;\n    uint256 amount;\n    uint256 ownerIndex; // ownerToTokensIndex[_owner][ownerIndex]\n    uint256 createdAt; // block number at created\n    address owner;\n    address creator;\n    address approved;\n    string uri;\n  }\n\n  Token[] internal tokens;\n  mapping(uint256 => uint256) internal tokenIdToIndex; // tokenId -> tokens index\n  uint256 internal tokenIdSeed;\n  uint256 internal lastMintBlockNumber;\n\n  mapping(address => uint256[]) internal ownerToTokensIndex; // owner address -> tokens index array\n  mapping(address => mapping(address => bool)) internal operatorApprovals; // approved address -> approve address flag mapping\n\n  mapping(bytes4 => bool) internal supportedInterfaces;\n\n  /**\n   * ERC165\n  ***/\n\n  // @override\n  function supportsInterface(bytes4 _interfaceId) external view returns (bool) {\n    return supportedInterfaces[_interfaceId];\n  }\n\n  function _registerInterface(bytes4 _interfaceId) internal {\n    require(_interfaceId != 0xffffffff);\n    supportedInterfaces[_interfaceId] = true;\n  }\n\n  /**\n   * ERC721Enumerable\n  ***/\n\n  // @override\n  function totalSupply() external view returns (uint256) {\n    return tokens.length;\n  }\n\n  // @override\n  function tokenByIndex(uint256 _index) external view returns (uint256) {\n    return tokenIdByIndex(_index);\n  }\n\n  // @override\n  function tokenOfOwnerByIndex(address _owner, uint256 _index) external view returns (uint256) {\n    require(_index < ownerToTokensIndex[_owner].length);\n    uint256 index = ownerToTokensIndex[_owner][_index];\n    return tokens[index].id;\n  }\n\n  function tokenIdByIndex(uint256 _index) internal view returns (uint256) {\n    require(_index < tokens.length);\n    return tokens[_index].id;\n  }\n\n  function indexByTokenId(uint256 _tokenId) internal view returns (uint256) {\n    uint index = tokenIdToIndex[_tokenId];\n    require(index < tokens.length);\n    require(tokens[index].id == _tokenId);\n    return index;\n  }\n\n  /**\n   * ERC721Metadata\n  ***/\n\n  // @override\n  function name() public view returns (string) {\n    return \"SixPillars\";\n  }\n\n  // @override\n  function symbol() public view returns (string) {\n    return \"SPT\";\n  }\n\n  // @override\n  function tokenURI(uint256 _tokenId) external view returns (string) {\n    uint index = indexByTokenId(_tokenId);\n    return tokens[index].uri;\n  }\n\n  /**\n   * ERC721TokenReceiver\n  ***/\n\n  // @override\n  function onERC721Received(address _operator, address _from, uint256 _tokenId, bytes _data) external returns(bytes4) {\n    return InterfaceId_ERC721TokenReceiver;\n  }\n\n  /**\n   * ERC721\n  ***/\n\n  // @override\n  function balanceOf(address _owner) external view returns (uint256) {\n    require(_owner != address(0));\n    return ownerToTokensIndex[_owner].length;\n  }\n\n  // @override\n  function ownerOf(uint256 _tokenId) external view returns (address) {\n    return internalOwnerOf(_tokenId);\n  }\n\n  // @override\n  function safeTransferFrom(address _from, address _to, uint256 _tokenId, bytes _data) external payable {\n    uint256 sendAmount = internalSafeTransferFrom(_from, _to, _tokenId, msg.value, _data);\n    if (0 < sendAmount) {\n      _from.transfer(sendAmount);\n      emit TransferWithAmount(_from, _to, _tokenId, sendAmount);\n    }\n  }\n\n  // @override\n  function safeTransferFrom(address _from, address _to, uint256 _tokenId) external payable {\n    uint256 sendAmount = internalSafeTransferFrom(_from, _to, _tokenId, msg.value, \"\");\n    if (0 < sendAmount) {\n      _from.transfer(sendAmount);\n      emit TransferWithAmount(_from, _to, _tokenId, sendAmount);\n    }\n  }\n\n  // @override\n  function transferFrom(address _from, address _to, uint256 _tokenId) external payable {\n    uint256 sendAmount = internalTransferFrom(_from, _to, _tokenId, msg.value);\n    if (0 < sendAmount) {\n      _from.transfer(sendAmount);\n      emit TransferWithAmount(_from, _to, _tokenId, sendAmount);\n    }\n  }\n\n  // @override\n  function approve(address _approved, uint256 _tokenId) external payable {\n    internalApprove(_approved, _tokenId, 0);\n  }\n\n  // @override\n  function setApprovalForAll(address _operator, bool _approved) external {\n    require(_operator != msg.sender);\n    operatorApprovals[msg.sender][_operator] = _approved;\n    emit ApprovalForAll(msg.sender, _operator, _approved);\n  }\n\n  // @override\n  function getApproved(uint256 _tokenId) external view returns (address) {\n    return internalGetApproved(_tokenId);\n  }\n\n  // @override\n  function isApprovedForAll(address _owner, address _operator) public view returns (bool) {\n    return internalIsApprovedForAll(_owner, _operator);\n  }\n\n  /**\n   * payment methods for ERC721\n  ***/\n\n  function approve(address _approved, uint256 _tokenId, uint256 _amount) external payable {\n    internalApprove(_approved, _tokenId, _amount);\n  }\n\n  function amountOf(uint256 _tokenId) external view returns (uint256) {\n    uint index = indexByTokenId(_tokenId);\n    return tokens[index].amount;\n  }\n\n  /**\n   * internal methods for ERC721 external methods\n  ***/\n\n  // @override\n  function internalOwnerOf(uint256 _tokenId) internal view returns (address) {\n    uint index = indexByTokenId(_tokenId);\n    return tokens[index].owner;\n  }\n\n  // @override\n  function internalSafeTransferFrom(address _from, address _to, uint256 _tokenId, uint256 _value, bytes _data) internal returns (uint256) {\n    if (isContract(_to)) {\n      bytes4 retval = ERC721TokenReceiver(_to).onERC721Received(msg.sender, _from, _tokenId, _data);\n      require(retval == InterfaceId_ERC721TokenReceiver, \"internalSafeTransferFrom msg.sender can not approved\");\n    }\n    return internalTransferFrom(_from, _to, _tokenId, _value);\n  }\n\n  function internalTransferFrom(address _from, address _to, uint256 _tokenId, uint256 _value) internal returns (uint256 sendAmount) {\n    uint index = indexByTokenId(_tokenId);\n    address owner = tokens[index].owner;\n    require((_from == owner) && (_from != _to));\n\n    // can transfer, if meet one of the confitions\n    // 1. sender is owner.\n    // 2. sender is approved of owner's all token transfer to \"_to\" address.\n    // 3. if an approved address is set,\n    // 3-1. and amount is set, approved sender pay token amount to owner, transfer to \"_to\" address.\n    // 3-2. and amount is not set, sender is approved of token transfer to \"_to\" address.\n    // 4. if an approved address is not set, sender to pay token amount to owner.\n    uint256 amount = tokens[index].amount;\n    tokens[index].amount = 0;\n    bool canTransfer = (msg.sender == owner) || internalIsApprovedForAll(owner, msg.sender);\n    if (canTransfer) {\n      // owner and approved sender, not payable.\n      require(_value == 0);\n\n    } else if (tokens[index].approved == msg.sender) {\n      sendAmount = amount;\n      canTransfer = (amount == _value);\n\n    } else if ((tokens[index].approved == address(0)) && (0 < amount)) {\n      sendAmount = amount;\n      canTransfer = (amount == _value);\n    }\n    require(canTransfer);\n\n    // clear approved\n    tokens[index].approved = address(0);\n\n    // transfer\n    transferToken(_from, _to, _tokenId);\n    emit Transfer(_from, _to, _tokenId);\n  }\n\n  function internalGetApproved(uint256 _tokenId) internal view returns (address) {\n    uint index = indexByTokenId(_tokenId);\n    return tokens[index].approved;\n  }\n\n  function internalIsApprovedForAll(address _owner, address _operator) internal view returns (bool) {\n    return operatorApprovals[_owner][_operator];\n  }\n\n  function internalApprove(address _approved, uint256 _tokenId, uint256 _amount) internal {\n    uint index = indexByTokenId(_tokenId);\n    address owner = tokens[index].owner;\n    require(_approved != owner);\n    require(msg.sender == owner || isApprovedForAll(owner, msg.sender));\n    tokens[index].approved = _approved;\n    tokens[index].amount = _amount;\n    emit Approval(owner, _approved, _tokenId);\n    if (0 < _amount) {\n      emit ApprovalWithAmount(owner, _approved, _tokenId, _amount);\n    }\n  }\n\n  /**\n   * internal methods for ERC721\n  ***/\n\n  function addTokenTo(address _toOwner, uint256 _tokenId, uint256 _inscription, bool _isSetCreator) internal {\n    uint index = tokenIdToIndex[_tokenId];\n    require(_toOwner != address(0));\n    if ((index == 0) && (0 < tokens.length)) {\n      require(tokens[0].id != _tokenId);\n    }\n\n    index = tokens.length;\n\n    // add token to owner\n    uint256 ownerIndex = ownerToTokensIndex[_toOwner].length;\n    ownerToTokensIndex[_toOwner].push(index);\n\n    address creator = _isSetCreator ? msg.sender : address(0);\n    Token memory tokenWithCreator = Token(_tokenId, _inscription, 0, ownerIndex, block.number, _toOwner, creator, address(0), \"\");\n    tokens.push(tokenWithCreator);\n    tokenIdToIndex[_tokenId] = index;\n  }\n\n  function removeTokenFrom(address _fromOwner, uint256 _tokenId) internal {\n    uint index = indexByTokenId(_tokenId);\n    require(tokens[index].owner == _fromOwner);\n\n    // change removeToken index <--> lastToken index for owner\n    uint256 removeTokenIndex = tokens[index].ownerIndex;\n    uint256 lastTokenIndex = ownerToTokensIndex[_fromOwner].length - 1;\n    if (removeTokenIndex != lastTokenIndex) {\n      tokens[ownerToTokensIndex[_fromOwner][lastTokenIndex] ].ownerIndex = removeTokenIndex;\n      ownerToTokensIndex[_fromOwner][removeTokenIndex] = ownerToTokensIndex[_fromOwner][lastTokenIndex];\n    }\n    ownerToTokensIndex[_fromOwner].length = lastTokenIndex;\n\n    // change removeToken index <--> lastToken index for all\n    removeTokenIndex = index;\n    lastTokenIndex = tokens.length - 1;\n    if (removeTokenIndex != lastTokenIndex) {\n      uint256 lastTokenId = tokens[lastTokenIndex].id;\n\n      // owner to\n      address lastTokenOwner = tokens[lastTokenIndex].owner;\n      uint256 lastTokenOwnerIndex = tokens[lastTokenIndex].ownerIndex;\n      ownerToTokensIndex[lastTokenOwner][lastTokenOwnerIndex] = removeTokenIndex;\n\n      // all\n      tokenIdToIndex[lastTokenId] = removeTokenIndex;\n      tokens[removeTokenIndex] = tokens[lastTokenIndex];\n    }\n    tokenIdToIndex[_tokenId] = 0;\n    tokens.length = lastTokenIndex;\n  }\n\n  function transferToken(address _fromOwner, address _toOwner, uint256 _tokenId) internal {\n    uint index = indexByTokenId(_tokenId);\n    require((_toOwner != address(0)) && (_fromOwner != _toOwner) && (tokens[index].owner == _fromOwner));\n\n    // remove from old owner\n    uint256 removeTokenIndex = tokens[index].ownerIndex;\n    uint256 lastTokenIndex = ownerToTokensIndex[_fromOwner].length - 1;\n\n    tokens[ownerToTokensIndex[_fromOwner][lastTokenIndex] ].ownerIndex = removeTokenIndex;\n    ownerToTokensIndex[_fromOwner][removeTokenIndex] = ownerToTokensIndex[_fromOwner][lastTokenIndex];\n    ownerToTokensIndex[_fromOwner].length = lastTokenIndex;\n\n    // add to new owner\n    uint256 ownerIndex = ownerToTokensIndex[_toOwner].length;\n    ownerToTokensIndex[_toOwner].push(index);\n    tokens[index].owner = _toOwner;\n    tokens[index].ownerIndex = ownerIndex;\n  }\n\n  function isContract(address addr) internal view returns (bool) {\n    uint256 size;\n    assembly { size := extcodesize(addr) }\n    return size > 0;\n  }\n\n  /**\n   * SixPillars\n  ***/\n\n  constructor() public {\n    _registerInterface(InterfaceId_ERC165);\n    _registerInterface(InterfaceId_ERC721);\n    _registerInterface(InterfaceId_ERC721Enumerable);\n    _registerInterface(InterfaceId_ERC721Metadata);\n    _registerInterface(InterfaceId_ERC721TokenReceiver);\n    tokenIdSeed = 722;\n    lastMintBlockNumber = 0;\n  }\n\n  function recover(bytes32 msgHash, uint8 v, bytes32 r, bytes32 s) public pure returns (address) {\n    return ecrecover(msgHash, v, r, s);\n  }\n\n  /// Mint new token.\n  ///\n  /// emit Mint(owner, creator, inscription, tokenId)\n  /// Throw _to is not valid.\n  /// Throw new token id is already used. (please try again later)\n  /// @param _to Owner of new token.\n  /// @param _inscription immutable parameter for new token.\n  /// @param _isSetCreator if true, creator of new token is msg.sender. if false, creator is zero address.\n  function mint(address _to, uint256 _inscription, bool _isSetCreator) external {\n    uint256 seed = tokenIdSeed;\n    if ((lastMintBlockNumber != 0) && (lastMintBlockNumber < block.number)) {\n      seed += (block.number - lastMintBlockNumber);\n    }\n    uint256 newTokenId = uint256(keccak256(abi.encodePacked(seed)));\n    tokenIdSeed = newTokenId;\n    lastMintBlockNumber = block.number;\n    addTokenTo(_to, newTokenId, _inscription, _isSetCreator);\n    emit Mint(\n      _to,\n      (_isSetCreator == true) ? msg.sender : address(0),\n      _inscription,\n      newTokenId\n    );\n  }\n\n  /// Burn your token.\n  ///\n  /// emit Burn(owner, creator, tokenId)\n  /// Throw token owner is not msg.sender.\n  /// @param _tokenId id of the token you want to burned.\n  function burn(uint256 _tokenId) external {\n    uint index = indexByTokenId(_tokenId);\n    address owner = tokens[index].owner;\n    address creator = tokens[index].creator;\n    require(owner == msg.sender);\n    removeTokenFrom(owner, _tokenId);\n    emit Burn(\n      owner,\n      creator,\n      _tokenId\n    );\n  }\n\n  /// Add creator to the token\n  ///\n  /// msg.sender is new creator.\n  /// emit CreatedBy(creator, tokenId)\n  /// Throw token creator is already added.\n  /// @param _tokenId id of the token you want add creator.\n  function createdBy(uint256 _tokenId) external {\n    uint index = indexByTokenId(_tokenId);\n    address creator = tokens[index].creator;\n    require(creator == address(0));\n    tokens[index].creator = msg.sender;\n    emit CreatedBy(\n      msg.sender,\n      _tokenId\n    );\n  }\n\n  /// Remove creator to the token\n  ///\n  /// creator of the token will be zero address.\n  /// emit ClearCreator(tokenId)\n  /// Throw token creator is not msg.sender.\n  /// @param _tokenId id of the token you want remove creator.\n  function clearCreator(uint256 _tokenId) external {\n    uint index = indexByTokenId(_tokenId);\n    address creator = tokens[index].creator;\n    require(msg.sender == creator);\n    tokens[index].creator = address(0);\n    emit ClearCreator(_tokenId);\n  }\n\n  /// Get inscription of the token.\n  /// @param _tokenId id of the token you get it.\n  /// @return uint256 inscription of the token.\n  function inscription(uint256 _tokenId) external view returns(uint256) {\n    uint index = indexByTokenId(_tokenId);\n    return tokens[index].inscription;\n  }\n\n  /// Get creator of the token.\n  /// @param _tokenId id of the token you get it.\n  /// @return address creator of the token.\n  function creator(uint256 _tokenId) external view returns(address) {\n    uint index = indexByTokenId(_tokenId);\n    return tokens[index].creator;\n  }\n\n  /// Get block number of the token at created.\n  /// @param _tokenId id of the token you get it.\n  /// @return uint256 block number of the token at created.\n  function createdAt(uint256 _tokenId) external view returns(uint256) {\n    uint index = indexByTokenId(_tokenId);\n    return tokens[index].createdAt;\n  }\n\n  /// Set new url for your token.\n  ///\n  /// Throw token owner is not msg.sender.\n  /// @param _tokenId id of the token you set it.\n  /// @param _uri new uri.\n  function setTokenURI(uint256 _tokenId, string _uri) external {\n    uint index = indexByTokenId(_tokenId);\n    require(tokens[index].owner == msg.sender);\n    tokens[index].uri = _uri;\n  }\n\n  /// Token balance of creator.\n  ///\n  /// Throw creator is not valid.\n  /// @param _creator creator of the tokens.\n  /// @return uint256 balance.\n  function balanceOfCreator(address _creator) external view returns (uint256) {\n    require(_creator != address(0));\n    uint256 count = 0;\n    for (uint256 i = 0; i < tokens.length; i++) {\n      if (tokens[i].creator == _creator) {\n        count++;\n      }\n    }\n    return count;\n  }\n\n  /// Get token ID of the specified creator and index.\n  ///\n  /// Throw owner is not valid.\n  /// Throw overflow index.\n  /// @param _creator creator of the token.\n  /// @param _index index of the creator tokens.\n  /// @return uint256 token id.\n  function tokenOfCreatorByIndex(address _creator, uint256 _index) external view returns (uint256) {\n    require(_creator != address(0));\n    uint256 count = 0;\n    for (uint256 i = 0; i < tokens.length; i++) {\n      if (tokens[i].creator == _creator) {\n        if (count == _index) {\n          return tokens[i].id;\n        }\n        count++;\n      }\n    }\n    revert();\n  }\n\n  /// Token balance of owner and creator.\n  ///\n  /// Throw owner is not valid.\n  /// Throw creator is not valid.\n  /// @param _owner owner of the tokens.\n  /// @param _creator creator of the tokens.\n  /// @return uint256 balance of `token.owner == _owner` and `token.creator == _creator` tokens.\n  function balanceOfOwnerAndCreator(address _owner, address _creator) external view returns (uint256) {\n    require((_owner != address(0)) && (_creator != address(0)));\n    uint256 balance = 0;\n    for (uint256 i = 0; i < ownerToTokensIndex[_owner].length; i++) {\n      uint256 index = ownerToTokensIndex[_owner][i];\n      if (tokens[index].creator == _creator) {\n        balance++;\n      }\n    }\n    return balance;\n  }\n\n  /// Get token ID of the specified owner, creator, and index.\n  ///\n  /// Throw owner is not valid.\n  /// Throw creator is not valid.\n  /// Throw overflow index.\n  /// @param _owner owner of the token.\n  /// @param _creator creator of the token, you can use zero address.\n  /// @param _index index of the creator tokens.\n  /// @return uint256 token id.\n  function tokenOfOwnerAndCreatorByIndex(address _owner, address _creator, uint256 _index) external view returns (uint256) {\n    require((_owner != address(0)) && (_creator != address(0)));\n    uint256 count = 0;\n    for (uint256 i = 0; i < ownerToTokensIndex[_owner].length; i++) {\n      uint256 index = ownerToTokensIndex[_owner][i];\n      if (tokens[index].creator == _creator) {\n        if (count == _index) {\n          return tokens[index].id;\n        }\n        count++;\n      }\n    }\n    revert();\n  }\n}\n",
  "sourcePath": "/Users/ogawa_mitsunori/Projects/smart-contracts/genes-platform-token/contracts/SixPillars.sol",
  "compiler": {
    "name": "solc",
    "version": "0.4.24+commit.e67f0147.Emscripten.clang"
  },
  "schemaVersion": "2.0.1",
  "updatedAt": "2018-09-25T03:05:55.794Z"
}